:100000000C942C0518951895189518951895189511
:100010001895189518951895189518951895189578
:10002000189518950C9463041895189518951895BB
:100030001895189518951895189518951895189558
:100040001895189518951895189518950C942905D4
:100050001895189541A042A1E045A3A4A5A64BA7D9
:100060004D484FA8504354A9AA58E1ABACE2ADAEFD
:10007000ADAFB0B161B2B3B4E365B6B7B8B9BABBAE
:10008000BCBD6FBE7063BF79E478E5C0C1E6C2C392
:10009000C4C5C6C703030302020800080006000C1B
:1000A0000001CFF0E8E2E5F22100BA93AA939A9317
:1000B0008A93D801C90107C00591CF010E9492001F
:1000C000FD010193DF01FC0104910023A9F78D01DB
:1000D00089919991A991B9910895A498AC9AEEE467
:1000E000F1E000E0028313E3108304E0018300E009
:1000F0000383A598AD9A0683148305E0058300E089
:100100000783A698AE9A0287108706E0018700E071
:100110000387A798AF9A0687148707E0058700E052
:1001200007870895003C28F0F0E0E02FEC56F040FF
:1001300004910895DB9A00FB16F4DC9A01C0DC9868
:1001400001FB16F4DD9A01C0DD9802FB16F4DE9A7D
:1001500001C0DE9803FB16F4DF9A01C0DF98DB983C
:100160000895D89AD998DA98DB98D19AD39AD29AE6
:10017000D79AD69AD59AD49AD09A0895BA93AA9330
:100180009A938A93C801EDDFEEE5F1E080839183D5
:10019000DC0100E210E21D930A95E9F700E0038B11
:1001A000028B0489087F048B00E21EE40E9468032E
:1001B00084E990E0AEE0FC010591CF01BBDF08E2ED
:1001C00010E00E946803AA95B1F700ED17E00E94C5
:1001D000680389919991A991B99108958A93802F83
:1001E000DA98D99A02950F70A5DF082FA3DF8991BD
:1001F00008958A93802FDA98D998F4CFBA93AA9366
:100200008A93AEE5B1E0209170012223FD010489BB
:1002100009F44AC00460048B868901FF25C002E00E
:10022000809FE00DF11D028113812091730130E068
:10023000020F131FF8010491D1DFFD010589039519
:10024000058B083008F46BC0482F01E010E00E94D5
:100250006F05009512891023128B04890D7F048B82
:1002600000E0058B068B5BC0482F01E010E00E9488
:100270006F05122F102359F406890395068B402F22
:1002800001E010E00E946F05122F1023A9F30091E6
:100290007401000F000F000F0F770064AADFFD014B
:1002A00004890260048B3BC002FF05C00A7F048BF7
:1002B00000E0038B25C00389102F105119F0105155
:1002C00081F021C0048900FF08C00E7F048BED91EE
:1002D000FC91008983DF01E10EC00160048B00EC1A
:1002E00010C0048900FF0AC00E7F048BED91FC91C1
:1002F000008174DF01E00093710111C00160048B83
:1003000000E877DF0CC0ED91FC91119710E0E00F51
:10031000F11F008163DFFD0103890395038B899140
:10032000A991B9910895A5E1B1E000E000932D01F4
:100330000EE211E00E94BE000E9456030E945F037D
:100340000E946D0060E070E046E050E00E944805C9
:100350000A3079F00AE046E050E00E946205009120
:100360001F01002331F41FB7F8940AE00093150130
:100370001FBF47E050E00E944805053079F005E0D6
:1003800047E050E00E94620500911F01002331F414
:100390001FB7F89405E0009316011FBF48E050E036
:1003A0000E944805003579F000E548E050E00E94E1
:1003B000620500911F01002331F41FB7F89400E596
:1003C000009317011FBF49E050E00E944805063422
:1003D00079F006E449E050E00E94620500911F01B7
:1003E000002331F41FB7F89406E4009318011FBFEF
:1003F00041E050E00E944805053051F005E041E041
:1004000050E00E9462051FB7F89400931A011FBFC5
:10041000AB010E9448050A3049F00AE0AB010E9496
:1004200062051FB7F894009319011FBF42E050E026
:100430000E944805023351F002E342E050E00E947E
:1004400062051FB7F89400931B011FBF43E050E003
:100450000E9448050C3351F00CE343E050E00E9449
:1004600062051FB7F89400931C011FBF44E050E0E1
:100470000E944B050C33104061F00CE310E044E0A7
:1004800050E00E9466052FB7F894FD0100871187A0
:100490002FBF42E150E00E944805002321F100E017
:1004A00042E150E00E9462052FB6F89442E150E02C
:1004B0000E94480500931F0114E0019FAB01400D0D
:1004C000511D4A5F5F4F0E9450050D931D932D9360
:1004D0003C931397CD010496FC01AB0116E020E09C
:1004E0000E9475052FBE42E150E00E94480500932E
:1004F0001F0114E0019FAB01400D511D4A5F5F4F8A
:100500000E9450050D931D932D933C931397CD019D
:100510000496FC01AB0116E020E00E9475050E94E4
:10052000B50340E050E028EE33E000E00E94C8034D
:1005300040E050E023E030E001E00E94C80340E0EA
:1005400050E02AE030E001E00E94110440E050E079
:100550002AE931E002E00E94C80340E050E026E8CA
:1005600031E004E00E94C80340E050E020E931E0BF
:1005700003E00E94C80340E050E02AE030E005E0DC
:100580000E94C803789422EA30E059968D010E94B7
:10059000550001E00E94EE030023D9F301E00E9420
:1005A000FA030E94FE00F5CF959894989698E5E19D
:1005B000F1E001811385011714F001E0008F089527
:1005C000959AE5E1F1E025850485602F702F770F7E
:1005D000770B322F330F330B621B730B4481542F75
:1005E000550F550B641775070CF0949A4581542FDD
:1005F000550F550B461757070CF0949812810117A9
:1006000014F002E0008F078120170CF0969A068103
:1006100002170CF0969803851081011714F003E07F
:10062000008F0895949A9598E5E1F1E0058517818A
:1006300010170CF4969A168101170CF49698038102
:100640001485011714F001E0008FE5CFBA93AA9347
:100650009598ACE2B1E00C91579702FF16C000E00C
:100660000E9446040023F9F000E00E944C0400E0E0
:100670000E9437041FB7F89457960C910B7F0C9388
:100680001FBF00E000932D010EC01FB7F8945796CE
:1006900004600C931F971FBF40E050E02D913C91E8
:1006A00000E00E941104A991B9910895BC98C49AE0
:1006B000BB98C39ABA98C29AB998C19A0895949867
:1006C0009598969897988C9A8D9A8E9A8F9A089565
:1006D000392F482F202F212B39F0C80105E00A952A
:1006E000F1F700000197D1F7842F932F08955B2F26
:1006F0000A2EE5E7F1E000E002AB03AB9F0105E85D
:1007000011E0B09668E040E0D9014D934D939D0112
:100710004FEFD8014D934D938D0140E041934193AC
:100720006A9589F7A02DB52F08955B2F0A2E00E05A
:100730000093A9010093AA01EBEAF1E02BEB31E071
:100740000BEC11E068E040E0419341934FEFD90199
:100750004D934D939D0140E0D8014D934D938D01F4
:100760006A9589F7A02DB52F089509B70C7F09BFA9
:1007700003B7087F03BF08B7036008BF06E002BFE6
:1007800009B7016009BF03B7036003BFB0DFCDCF76
:10079000083008F007E012E0019FE5E7F1E0E00D26
:1007A000F11D40A351A3208B318B20E0F001EB58C9
:1007B000FE4F20832183402F01E010E00E946F054F
:1007C000102F10952091A80121232093A80120919A
:1007D000A7012123202B2093A7010895083008F0BA
:1007E00007E02091A801402F01E010E00E946F0572
:1007F00002230895083008F007E020E012E0019F8E
:10080000F001EB58FE4F20832183402F01E010E0E0
:100810000E946F0500951091A80110231093A80164
:100820000895083008F007E012E0019FEBEAF1E0DC
:10083000E00DF11D40A351A3208B318B20E0F0018E
:10084000E555FE4F20832183402F01E010E00E94F8
:100850006F05102F10952091AA0121232093AA0142
:100860002091A9012123202B2093A901089508306C
:1008700008F007E0402F01E010E00E946F050095AE
:100880001091A90110231093A9010895083008F0D0
:1008900007E02091AA01A7CF083008F007E020E088
:1008A00012E0019FF001E555FE4F20832183402F88
:1008B00001E010E00E946F0500951091AA0110233D
:1008C0001093AA0108959A928A927A926A925A9201
:1008D0004A92BA93AA939A938A93FA93EA933A9292
:1008E0002A921A920A927A936A935A934A933A9363
:1008F0002A931A930A939FB606E002BF8824A5E7BD
:10090000B1E02D013D0100E1600E781CCD01809623
:10091000482D01E010E00E946F05202F0091A701F3
:10092000022301F1F201008111810F5F1F4F00834B
:1009300011830081F301408151810417150791F45F
:1009400000E0F20100830183FD0103A9022B03AB48
:10095000FC01208131812030304021F00081F18183
:10096000E02F09958394029602E0600E00E0701E6D
:1009700002E0400E00E0501E08E0801648F2FD0143
:1009800000A911A90F5F1F4F00AB11AB083E134028
:1009900008F445C000E000AB01AB88248BEA91E08D
:1009A0000BEB602E01E0702E0BEC402E01E0502E80
:1009B000482D01E010E00E946F05202F0091A90151
:1009C000022301F1FC01008111810F5F1F4F0083A1
:1009D00011830081F301408151810417150791F4BF
:1009E00000E0FC0100830183FD0105A9022B05AB9A
:1009F000F201208131812030304021F00081F181ED
:100A0000E02F0995839402E0400E00E0501E02E0C2
:100A1000600E00E0701E029608E0801648F29FBE4D
:100A20000991199129913991499159916991799136
:100A30000990199029903990E991F99189919991AA
:100A4000A991B9914990599069907990899099901C
:100A5000189518950C94A80504E10DBF01E00EBF90
:100A6000C9EDD0E00E947E05002311F00E948E05A2
:100A70000E9493010E946D050C942A05E199FECF16
:100A800008954F5F5F4FFADF4EBB5FBBE09A08955A
:100A9000FADF0DB30895F7DF0DB3F3DF1DB308954B
:100AA000F2DF0DB3EEDF1DB3ECDF2DB3EADF3DB3B4
:100AB00008954F5F5F4F4EBB5FBBF894E29AE19A97
:100AC0000FBE08950FB6DADF0DBBF5CF0FB6D6DF38
:100AD0000DBBF1DFD3DF1DBBECCF0C942A054A958B
:100AE0001AF0000F111FFBCF08950E9448054F5FB9
:100AF0005F4F019311502040C1F7089501E0089520
:100B000020E006D0E9F70895259102D0E9F708958D
:100B10002D9301501040202F212B089582E59BE05A
:100B2000FC0105911491FC013296A591B491FC0150
:100B3000349625913491422F432B19F0F901E4DFCB
:100B400001C0DEDF06961BE08E35910748F308955D
:100B5000FFCF8D004E010000390015015E0B000033
:100B600000000000000000000000000000D402E0CF
:100B70000212032603000000000000000000000035
:100B80000000000000000000000000000000000065
:070B9000000000000000005E
:00000001FF
:00000001FF
