:100000000C9433041895189518951895189518950B
:100010001895189518951895189518951895189578
:10002000189518950C9469031895189518951895B6
:100030001895189518951895189518951895189558
:100040001895189518951895189518950C943004CE
:100050001895189503030302020800080006000C17
:100060000001A498AC9AE7E4F1E000E0028313E316
:10007000108304E0018300E00383A598AD9A068312
:10008000148305E0058300E00783A698AE9A0287F3
:10009000108706E0018700E00387A798AF9A0687DC
:1000A000148707E0058700E007870895DB9A00FBC7
:1000B00016F4DC9A01C0DC9801FB16F4DD9A01C04D
:1000C000DD9802FB16F4DE9A01C0DE9803FB16F4FD
:1000D000DF9A01C0DF98DB980895D89AD998DA980A
:1000E000DB98D19AD39AD29AD79AD69AD59AD49A9B
:1000F000D09A0895BA93AA939A938A93C801EDDF90
:10010000E7E5F1E080839183DC0100E210E21D93DA
:100110000A95E9F700E0038B028B0489087F048BC2
:1001200004E110E00E94A50284E590E0AEE0FC014D
:100130000591CF01BBDF02E010E00E94A502AA9565
:10014000B1F702E010E00E94A50289919991A9916E
:10015000B9910895BA93AA93ACE1B1E020E81FE009
:1001600007E06AD100931B0142E150E0102F110F0C
:10017000110B000F111F000F111F400F511F0E9484
:1001800057040D931D932D933D9346E050E014E0EA
:10019000019F400D511D0E9457040D931D932D93F7
:1001A0003D9340E050E0FD0116E020E00E947C0419
:1001B000A991B991089500E0009336010EE611E08F
:1001C0000E947A000E9493020E949C020E943100C9
:1001D00046E050E00E944F040A3079F00AE046E021
:1001E00050E00E94690400911C01002331F41FB704
:1001F000F8940AE0009320011FBF47E050E00E94FE
:100200004F04053079F005E047E050E00E946904B2
:1002100000911C01002331F41FB7F89405E000930E
:1002200021011FBF48E050E00E944F04003579F0E3
:1002300000E548E050E00E94690400911C010023A1
:1002400031F41FB7F89400E5009322011FBF49E085
:1002500050E00E944F04063479F006E449E050E093
:100260000E94690400911C01002331F41FB7F89427
:1002700006E4009323011FBF41E050E00E944F04B9
:10028000053051F005E041E050E00E9469041FB7DD
:10029000F894009325011FBF40E050E00E944F04F6
:1002A0000A3051F00AE040E050E00E9469041FB7B4
:1002B000F894009324011FBF42E050E00E944F04D5
:1002C000023351F002E342E050E00E9469041FB79C
:1002D000F894009326011FBF43E050E00E944F04B2
:1002E0000C3351F00CE343E050E00E9469041FB767
:1002F000F894009327011FBF44E050E00E9452048D
:100300000C33104069F00CE310E044E050E00E9430
:100310006D044FB7F894EBE1F1E0058716874FBF06
:1003200000911C01002399F01FB7F89400E000939E
:100330001C011FBF6FB7F89446E050E00E945704BD
:10034000EBE1F1E005831683278330876FBF02DF7F
:100350000E940A0340E050E021E030E000E00E940B
:100360001D0340E050E021E030E001E00E941D0369
:1003700040E050E021E030E002E00E941D0340E058
:1003800050E021E030E003E00E941D0340E050E037
:1003900021E030E004E00E941D0340E050E021E055
:1003A00030E005E00E941D0340E050E021E030E035
:1003B00006E00E941D0340E050E021E030E007E04D
:1003C0000E941D0340E050E021E030E000E00E9488
:1003D000430340E050E021E030E001E00E944303AD
:1003E00040E050E021E030E002E00E94430340E0C2
:1003F00050E021E030E003E00E94430340E050E0A1
:1004000021E030E004E00E94430340E050E021E0BE
:1004100030E005E00E94430340E050E021E030E09E
:1004200006E00E94430340E050E021E030E007E0B6
:100430000E9443037894FFCF002E30E063E170E028
:10044000AB014E5F5F4F0E944F04202EAB014F5F08
:100450005F4F0E944F04001650F0AB010E944F0402
:10046000101728F027FA16F0222209F0132E3395E0
:100470006C5F7F4F323020F3012D0895959894984A
:100480009698EBE1F1E006811785011714F001E081
:10049000038F0895959AEBE1F1E021890089602F9F
:1004A000702F770F770B322F330F330B621B730BC9
:1004B0004185542F550F550B641775070CF0949A0E
:1004C0004285542F550F550B461757070CF094983B
:1004D0001781011714F002E0038F048520170CF038
:1004E000969A038502170CF09698078515810117D7
:1004F00014F003E0038F0895949A9598EBE1F1E0EE
:100500000189148510170CF4969A138501170CF4C1
:10051000969800851089011714F001E0038FE5CF4C
:100520009598949A0895BC98C49ABB98C39ABA981F
:10053000C29AB998C19A0895949895989698979860
:100540008C9A8D9A8E9A8F9A08959A938A93C8015D
:100550000091E40100FD06C05DD0EEEAF1E006A9DD
:10056000016006AB2091DE013091DF010091DE01D8
:100570001091DF01021713070091DE011091DF01D6
:1005800010F408511C4F021B130B0817190770F3C6
:100590008991999108955B2F0A2EEEEAF1E000E02F
:1005A00002AB03AB9F010EEB11E0B09668E040E0B8
:1005B000D9014D934D939D014FEFD8014D934D932C
:1005C0008D0140E0419341936A9589F7A02DB52FA5
:1005D00008955B2F0A2EBF9A00E00093E20100937A
:1005E000E301E5EEF1E025EF31E005E012E068E03F
:1005F00040E0419341934FEFD9014D934D939D01BD
:1006000040E0D8014D934D938D016A9589F7A02D57
:10061000B52F089509B70C7F09BF03B7087F03BF43
:1006200008B7036008BF06E002BF09B7016009BF51
:1006300003B7036003BFAFDFCCCF083008F007E09B
:1006400012E0019FEEEAF1E0E00DF11D40A351A39D
:10065000208B318B20E0F001E255FE4F2083218377
:10066000402F01E010E00E947604102F1095209199
:10067000E10121232093E1012091E0012123202B9E
:100680002093E0010895083008F007E012E0019F90
:10069000E5EEF1E0E00DF11D40A351A3208B318B7D
:1006A00020E0F001EB51FE4F20832183402F01E039
:1006B00010E00E947604102F10952091E301212371
:1006C0002093E3012091E2012123202B2093E201DA
:1006D00008959A928A927A926A925A924A92BA9318
:1006E000AA939A938A93FA93EA933A922A921A9245
:1006F0000A927A936A935A934A933A932A931A9353
:100700000A939FB606E002BFC79A8824AEEAB1E01A
:100710002D013D0100E1600E781CCD018096482D31
:1007200001E010E00E947604202F0091E0010223F6
:1007300001F1F201008111810F5F1F4F00831183CE
:100740000081F301408151810417150791F400E005
:10075000F20100830183FD0103A9022B03ABFC011D
:10076000208131812030304021F00081F181E02F63
:1007700009958394029602E0600E00E0701E02E08C
:10078000400E00E0501E08E0801648F2FD0180A9EE
:1007900091A9019680AB91AB883E934008F445C087
:1007A00000E000AB01AB882485EE91E005EF602E00
:1007B00001E0702E05E0402E02E0502E482D01E0B1
:1007C00010E00E947604202F0091E201022301F143
:1007D000FC01008111810F5F1F4F00831183008195
:1007E000F301408151810417150791F400E0FC01E9
:1007F00000830183FD0105A9022B05ABF2012081D5
:1008000031812030304021F00081F181E02F0995C5
:10081000839402E0400E00E0501E02E0600E00E013
:10082000701E029608E0801648F2C7989FBE099194
:100830001991299139914991599169917991099029
:10084000199029903990E991F99189919991A991FB
:10085000B99149905990699079908990999018959B
:1008600018950C94AF040AE10DBF01E00EBFCFED67
:10087000D0E00E948504002311F00E9495040E949C
:10088000DB000E9474040C943104E199FECF0895BA
:100890004F5F5F4FFADF4EBB5FBBE09A0895FADF10
:1008A0000DB30895F7DF0DB3F3DF1DB30895F2DF45
:1008B0000DB3EEDF1DB3ECDF2DB3EADF3DB30895DA
:1008C0004F5F5F4F4EBB5FBBF894E29AE19A0FBE59
:1008D00008950FB6DADF0DBBF5CF0FB6D6DF0DBB2F
:1008E000F1DFD3DF1DBBECCF0C9431044A951AF035
:1008F000000F111FFBCF08950E944F044F5F5F4F01
:10090000019311502040C1F7089501E0089520E0BF
:1009100006D0E9F70895259102D0E9F708952D93BF
:1009200001501040202F212B089580E699E0FC0112
:1009300005911491FC013296A591B491FC01349675
:1009400025913491422F432B19F0F901E4DF01C0C6
:10095000DEDF069619E08C36910748F30895FFCF45
:10096000CE00470100002C001B016C0900000000B4
:100970000000000000000000000000000000003E39
:10098000024A027C02900200000000000000000009
:0809900000000000000000005F
:00000001FF
:00000001FF
